{
  "contractName": "DCAWallet",
  "abi": [
    {
      "inputs": [],
      "stateMutability": "nonpayable",
      "type": "constructor"
    },
    {
      "inputs": [],
      "name": "poolFee",
      "outputs": [
        {
          "internalType": "uint24",
          "name": "",
          "type": "uint24"
        }
      ],
      "stateMutability": "view",
      "type": "function",
      "constant": true
    },
    {
      "inputs": [
        {
          "internalType": "address",
          "name": "",
          "type": "address"
        },
        {
          "internalType": "uint256",
          "name": "",
          "type": "uint256"
        }
      ],
      "name": "portfolioAllocation",
      "outputs": [
        {
          "internalType": "uint256",
          "name": "",
          "type": "uint256"
        }
      ],
      "stateMutability": "view",
      "type": "function",
      "constant": true
    },
    {
      "inputs": [],
      "name": "swapRouter",
      "outputs": [
        {
          "internalType": "contract ISwapRouter",
          "name": "",
          "type": "address"
        }
      ],
      "stateMutability": "view",
      "type": "function",
      "constant": true
    },
    {
      "inputs": [
        {
          "internalType": "address",
          "name": "",
          "type": "address"
        },
        {
          "internalType": "uint256",
          "name": "",
          "type": "uint256"
        }
      ],
      "name": "tokenBalances",
      "outputs": [
        {
          "internalType": "uint256",
          "name": "",
          "type": "uint256"
        }
      ],
      "stateMutability": "view",
      "type": "function",
      "constant": true
    },
    {
      "inputs": [
        {
          "internalType": "uint256",
          "name": "",
          "type": "uint256"
        }
      ],
      "name": "token_addresses",
      "outputs": [
        {
          "internalType": "address",
          "name": "",
          "type": "address"
        }
      ],
      "stateMutability": "view",
      "type": "function",
      "constant": true
    },
    {
      "inputs": [],
      "name": "usdcToken",
      "outputs": [
        {
          "internalType": "contract ErcToken",
          "name": "",
          "type": "address"
        }
      ],
      "stateMutability": "view",
      "type": "function",
      "constant": true
    },
    {
      "inputs": [
        {
          "internalType": "address",
          "name": "",
          "type": "address"
        }
      ],
      "name": "userTimelock",
      "outputs": [
        {
          "internalType": "uint256",
          "name": "",
          "type": "uint256"
        }
      ],
      "stateMutability": "view",
      "type": "function",
      "constant": true
    },
    {
      "inputs": [],
      "name": "wbtcToken",
      "outputs": [
        {
          "internalType": "contract ErcToken",
          "name": "",
          "type": "address"
        }
      ],
      "stateMutability": "view",
      "type": "function",
      "constant": true
    },
    {
      "inputs": [],
      "name": "wethToken",
      "outputs": [
        {
          "internalType": "contract ErcToken",
          "name": "",
          "type": "address"
        }
      ],
      "stateMutability": "view",
      "type": "function",
      "constant": true
    },
    {
      "inputs": [
        {
          "internalType": "uint256[]",
          "name": "_portfolio_allocation",
          "type": "uint256[]"
        }
      ],
      "name": "createPortfolioAllocation",
      "outputs": [],
      "stateMutability": "nonpayable",
      "type": "function"
    },
    {
      "inputs": [
        {
          "internalType": "uint256",
          "name": "_amount",
          "type": "uint256"
        }
      ],
      "name": "usdcDeposited",
      "outputs": [],
      "stateMutability": "nonpayable",
      "type": "function"
    },
    {
      "inputs": [
        {
          "internalType": "uint256",
          "name": "_amount",
          "type": "uint256"
        }
      ],
      "name": "usdcDepositedAndExecute",
      "outputs": [],
      "stateMutability": "nonpayable",
      "type": "function"
    },
    {
      "inputs": [
        {
          "internalType": "uint256",
          "name": "_amount",
          "type": "uint256"
        }
      ],
      "name": "executePortfolioBuys",
      "outputs": [],
      "stateMutability": "nonpayable",
      "type": "function"
    },
    {
      "inputs": [
        {
          "internalType": "uint256",
          "name": "amountIn",
          "type": "uint256"
        },
        {
          "internalType": "uint256",
          "name": "token_index",
          "type": "uint256"
        }
      ],
      "name": "swapExactInputSingle",
      "outputs": [
        {
          "internalType": "uint256",
          "name": "amountOut",
          "type": "uint256"
        }
      ],
      "stateMutability": "nonpayable",
      "type": "function"
    },
    {
      "inputs": [
        {
          "internalType": "uint256",
          "name": "_unlockDate",
          "type": "uint256"
        }
      ],
      "name": "setTimelock",
      "outputs": [],
      "stateMutability": "nonpayable",
      "type": "function"
    },
    {
      "inputs": [
        {
          "internalType": "uint256",
          "name": "amount",
          "type": "uint256"
        },
        {
          "internalType": "uint256",
          "name": "token_index",
          "type": "uint256"
        }
      ],
      "name": "withdrawTokens",
      "outputs": [],
      "stateMutability": "nonpayable",
      "type": "function"
    }
  ],
  "bytecode": "0x60a060405260405180606001604052807368ec573c119826db2eaea1efbfc2970cdac869c473ffffffffffffffffffffffffffffffffffffffff1673ffffffffffffffffffffffffffffffffffffffff16815260200173c778417e063141139fce010982780140aa0cd5ab73ffffffffffffffffffffffffffffffffffffffff1673ffffffffffffffffffffffffffffffffffffffff16815260200173c3778758d19a654fa6d0bb3593cf26916fb3d11473ffffffffffffffffffffffffffffffffffffffff1673ffffffffffffffffffffffffffffffffffffffff168152506000906003620000f192919062000312565b5073e592427a0aece92de3edee1f18e0157c0586156473ffffffffffffffffffffffffffffffffffffffff1660809073ffffffffffffffffffffffffffffffffffffffff1660601b81525073e592427a0aece92de3edee1f18e0157c05861564600460006101000a81548173ffffffffffffffffffffffffffffffffffffffff021916908373ffffffffffffffffffffffffffffffffffffffff1602179055503480156200019e57600080fd5b5060008081548110620001ad57fe5b9060005260206000200160009054906101000a900473ffffffffffffffffffffffffffffffffffffffff16600560006101000a81548173ffffffffffffffffffffffffffffffffffffffff021916908373ffffffffffffffffffffffffffffffffffffffff16021790555060006001815481106200022757fe5b9060005260206000200160009054906101000a900473ffffffffffffffffffffffffffffffffffffffff16600660006101000a81548173ffffffffffffffffffffffffffffffffffffffff021916908373ffffffffffffffffffffffffffffffffffffffff1602179055506000600281548110620002a157fe5b9060005260206000200160009054906101000a900473ffffffffffffffffffffffffffffffffffffffff16600760006101000a81548173ffffffffffffffffffffffffffffffffffffffff021916908373ffffffffffffffffffffffffffffffffffffffff160217905550620003c0565b8280548282559060005260206000209081019282156200038e579160200282015b828111156200038d5782518260006101000a81548173ffffffffffffffffffffffffffffffffffffffff021916908373ffffffffffffffffffffffffffffffffffffffff1602179055509160200191906001019062000333565b5b5090506200039d9190620003a1565b5090565b5b80821115620003bc576000816000905550600101620003a2565b5090565b60805160601c6116d9620003e3600039806107825280610bf052506116d96000f3fe608060405234801561001057600080fd5b50600436106101005760003560e01c806349cdeeb911610097578063c31c9c0711610066578063c31c9c07146102ad578063ce11fc39146102cb578063e7debb58146102e7578063ecbbf5861461031757610100565b806349cdeeb9146102275780634b57b0be146102575780639cc2423414610275578063ba7bd2aa1461029157610100565b806327614df8116100d357806327614df81461018d5780632fb2a9c0146101ab578063302b486a146101c757806348ff5665146101f757610100565b8063089fe6aa146101055780630bf73e1a1461012357806311eac855146101535780631e891c0a14610171575b600080fd5b61010d610333565b60405161011a91906114e3565b60405180910390f35b61013d6004803603810190610138919061114a565b610339565b60405161014a91906114fe565b60405180910390f35b61015b61036a565b6040516101689190611471565b60405180910390f35b61018b600480360381019061018691906111f0565b610390565b005b6101956103d7565b6040516101a29190611471565b60405180910390f35b6101c560048036038101906101c091906111f0565b6103fd565b005b6101e160048036038101906101dc9190611121565b610567565b6040516101ee91906114fe565b60405180910390f35b610211600480360381019061020c919061114a565b61057f565b60405161021e91906114fe565b60405180910390f35b610241600480360381019061023c9190611242565b6105a4565b60405161024e91906114fe565b60405180910390f35b61025f610892565b60405161026c9190611471565b60405180910390f35b61028f600480360381019061028a91906111f0565b6108b8565b005b6102ab60048036038101906102a69190611242565b610a19565b005b6102b5610bee565b6040516102c2919061148c565b60405180910390f35b6102e560048036038101906102e09190611186565b610c12565b005b61030160048036038101906102fc91906111f0565b610cc0565b60405161030e91906113f6565b60405180910390f35b610331600480360381019061032c91906111f0565b610cff565b005b610bb881565b6002602052816000526040600020818154811061035557600080fd5b90600052602060002001600091509150505481565b600560009054906101000a900473ffffffffffffffffffffffffffffffffffffffff1681565b80600360003373ffffffffffffffffffffffffffffffffffffffff1673ffffffffffffffffffffffffffffffffffffffff1681526020019081526020016000208190555050565b600760009054906101000a900473ffffffffffffffffffffffffffffffffffffffff1681565b60008111610440576040517f08c379a0000000000000000000000000000000000000000000000000000000008152600401610437906114a7565b60405180910390fd5b600560009054906101000a900473ffffffffffffffffffffffffffffffffffffffff1673ffffffffffffffffffffffffffffffffffffffff166323b872dd3330846040518463ffffffff1660e01b815260040161049f93929190611411565b602060405180830381600087803b1580156104b957600080fd5b505af11580156104cd573d6000803e3d6000fd5b505050506040513d601f19601f820116820180604052508101906104f191906111c7565b5080600160003373ffffffffffffffffffffffffffffffffffffffff1673ffffffffffffffffffffffffffffffffffffffff168152602001908152602001600020600080600281111561054057fe5b81526020019081526020016000206000828254019250508190555061056481610cff565b50565b60036020528060005260406000206000915090505481565b6001602052816000526040600020602052806000526040600020600091509150505481565b600082600160003373ffffffffffffffffffffffffffffffffffffffff1673ffffffffffffffffffffffffffffffffffffffff16815260200190815260200160002060008060028111156105f457fe5b8152602001908152602001600020600082825403925050819055506106736000808154811061061f57fe5b9060005260206000200160009054906101000a900473ffffffffffffffffffffffffffffffffffffffff16600460009054906101000a900473ffffffffffffffffffffffffffffffffffffffff1685610dcc565b60006040518061010001604052806000808154811061068e57fe5b9060005260206000200160009054906101000a900473ffffffffffffffffffffffffffffffffffffffff1673ffffffffffffffffffffffffffffffffffffffff168152602001600085815481106106e157fe5b9060005260206000200160009054906101000a900473ffffffffffffffffffffffffffffffffffffffff1673ffffffffffffffffffffffffffffffffffffffff168152602001610bb862ffffff1681526020013073ffffffffffffffffffffffffffffffffffffffff16815260200142815260200185815260200160008152602001600073ffffffffffffffffffffffffffffffffffffffff1681525090507f000000000000000000000000000000000000000000000000000000000000000073ffffffffffffffffffffffffffffffffffffffff1663414bf389826040518263ffffffff1660e01b81526004016107d991906114c7565b602060405180830381600087803b1580156107f357600080fd5b505af1158015610807573d6000803e3d6000fd5b505050506040513d601f19601f8201168201806040525081019061082b9190611219565b915081600160003373ffffffffffffffffffffffffffffffffffffffff1673ffffffffffffffffffffffffffffffffffffffff1681526020019081526020016000206000858152602001908152602001600020600082825401925050819055505092915050565b600660009054906101000a900473ffffffffffffffffffffffffffffffffffffffff1681565b600081116108fb576040517f08c379a00000000000000000000000000000000000000000000000000000000081526004016108f2906114a7565b60405180910390fd5b600560009054906101000a900473ffffffffffffffffffffffffffffffffffffffff1673ffffffffffffffffffffffffffffffffffffffff166323b872dd3330846040518463ffffffff1660e01b815260040161095a93929190611411565b602060405180830381600087803b15801561097457600080fd5b505af1158015610988573d6000803e3d6000fd5b505050506040513d601f19601f820116820180604052508101906109ac91906111c7565b5080600160003373ffffffffffffffffffffffffffffffffffffffff1673ffffffffffffffffffffffffffffffffffffffff16815260200190815260200160002060008060028111156109fb57fe5b81526020019081526020016000206000828254019250508190555050565b600360003373ffffffffffffffffffffffffffffffffffffffff1673ffffffffffffffffffffffffffffffffffffffff16815260200190815260200160002054421015610a6557600080fd5b81600160003373ffffffffffffffffffffffffffffffffffffffff1673ffffffffffffffffffffffffffffffffffffffff1681526020019081526020016000206000838152602001908152602001600020541015610ac257600080fd5b81600160003373ffffffffffffffffffffffffffffffffffffffff1673ffffffffffffffffffffffffffffffffffffffff1681526020019081526020016000206000838152602001908152602001600020600082825403925050819055506000808281548110610b2e57fe5b9060005260206000200160009054906101000a900473ffffffffffffffffffffffffffffffffffffffff1690508073ffffffffffffffffffffffffffffffffffffffff1663a9059cbb33856040518363ffffffff1660e01b8152600401610b96929190611448565b602060405180830381600087803b158015610bb057600080fd5b505af1158015610bc4573d6000803e3d6000fd5b505050506040513d601f19601f82011682018060405250810190610be891906111c7565b50505050565b7f000000000000000000000000000000000000000000000000000000000000000081565b6003815114610c2057600080fd5b60008060009050600091505b8251821015610c5a57828281518110610c4157fe5b6020026020010151810190508180600101925050610c2c565b60648114610c6757600080fd5b82600260003373ffffffffffffffffffffffffffffffffffffffff1673ffffffffffffffffffffffffffffffffffffffff1681526020019081526020016000209080519060200190610cba929190610fcd565b50505050565b60008181548110610cd057600080fd5b906000526020600020016000915054906101000a900473ffffffffffffffffffffffffffffffffffffffff1681565b6000600190505b600260003373ffffffffffffffffffffffffffffffffffffffff1673ffffffffffffffffffffffffffffffffffffffff16815260200190815260200160002080549050811015610dc857610dba606483600260003373ffffffffffffffffffffffffffffffffffffffff1673ffffffffffffffffffffffffffffffffffffffff1681526020019081526020016000208481548110610da057fe5b90600052602060002001540281610db357fe5b04826105a4565b508080600101915050610d06565b5050565b6000808473ffffffffffffffffffffffffffffffffffffffff1663095ea7b360e01b8585604051602401808373ffffffffffffffffffffffffffffffffffffffff16815260200182815260200192505050604051602081830303815290604052907bffffffffffffffffffffffffffffffffffffffffffffffffffffffff19166020820180517bffffffffffffffffffffffffffffffffffffffffffffffffffffffff83818316178352505050506040518082805190602001908083835b60208310610ead5780518252602082019150602081019050602083039250610e8a565b6001836020036101000a0380198251168184511680821785525050505050509050019150506000604051808303816000865af19150503d8060008114610f0f576040519150601f19603f3d011682016040523d82523d6000602084013e610f14565b606091505b5091509150818015610f545750600081511480610f535750808060200190516020811015610f4157600080fd5b81019080805190602001909291905050505b5b610fc6576040517f08c379a00000000000000000000000000000000000000000000000000000000081526004018080602001828103825260028152602001807f534100000000000000000000000000000000000000000000000000000000000081525060200191505060405180910390fd5b5050505050565b828054828255906000526020600020908101928215611009579160200282015b82811115611008578251825591602001919060010190610fed565b5b509050611016919061101a565b5090565b5b8082111561103357600081600090555060010161101b565b5090565b600061104a6110458461154a565b611519565b9050808382526020820190508285602086028201111561106957600080fd5b60005b85811015611099578161107f88826110f7565b84526020840193506020830192505060018101905061106c565b5050509392505050565b6000813590506110b28161165e565b92915050565b600082601f8301126110c957600080fd5b81356110d9848260208601611037565b91505092915050565b6000815190506110f181611675565b92915050565b6000813590506111068161168c565b92915050565b60008151905061111b8161168c565b92915050565b60006020828403121561113357600080fd5b6000611141848285016110a3565b91505092915050565b6000806040838503121561115d57600080fd5b600061116b858286016110a3565b925050602061117c858286016110f7565b9150509250929050565b60006020828403121561119857600080fd5b600082013567ffffffffffffffff8111156111b257600080fd5b6111be848285016110b8565b91505092915050565b6000602082840312156111d957600080fd5b60006111e7848285016110e2565b91505092915050565b60006020828403121561120257600080fd5b6000611210848285016110f7565b91505092915050565b60006020828403121561122b57600080fd5b60006112398482850161110c565b91505092915050565b6000806040838503121561125557600080fd5b6000611263858286016110f7565b9250506020611274858286016110f7565b9150509250929050565b611287816115de565b82525050565b61129681611587565b82525050565b6112a581611587565b82525050565b6112b4816115f0565b82525050565b6112c381611614565b82525050565b60006112d6601f83611576565b91507f616d6f756e742073686f756c642062652067726561746572207468616e2030006000830152602082019050919050565b61010082016000820151611320600085018261128d565b506020820151611333602085018261128d565b50604082015161134660408501826113ba565b506060820151611359606085018261128d565b50608082015161136c60808501826113d8565b5060a082015161137f60a08501826113d8565b5060c082015161139260c08501826113d8565b5060e08201516113a560e08501826113ab565b50505050565b6113b4816115a5565b82525050565b6113c3816115c5565b82525050565b6113d2816115c5565b82525050565b6113e1816115d4565b82525050565b6113f0816115d4565b82525050565b600060208201905061140b600083018461129c565b92915050565b6000606082019050611426600083018661127e565b611433602083018561129c565b61144060408301846113e7565b949350505050565b600060408201905061145d600083018561127e565b61146a60208301846113e7565b9392505050565b600060208201905061148660008301846112ab565b92915050565b60006020820190506114a160008301846112ba565b92915050565b600060208201905081810360008301526114c0816112c9565b9050919050565b6000610100820190506114dd6000830184611309565b92915050565b60006020820190506114f860008301846113c9565b92915050565b600060208201905061151360008301846113e7565b92915050565b6000604051905081810181811067ffffffffffffffff821117156115405761153f61165c565b5b8060405250919050565b600067ffffffffffffffff8211156115655761156461165c565b5b602082029050602081019050919050565b600082825260208201905092915050565b6000611592826115a5565b9050919050565b60008115159050919050565b600073ffffffffffffffffffffffffffffffffffffffff82169050919050565b600062ffffff82169050919050565b6000819050919050565b60006115e982611638565b9050919050565b60006115fb82611602565b9050919050565b600061160d826115a5565b9050919050565b600061161f82611626565b9050919050565b6000611631826115a5565b9050919050565b60006116438261164a565b9050919050565b6000611655826115a5565b9050919050565bfe5b61166781611587565b811461167257600080fd5b50565b61167e81611599565b811461168957600080fd5b50565b611695816115d4565b81146116a057600080fd5b5056fea2646970667358221220634a774c814f90d22fbe02278433503dd7b85960f9137c24dae7ca187aa4a93364736f6c63430007060033",
  "immutableReferences": {
    "422": [
      {
        "length": 32,
        "start": 1922
      },
      {
        "length": 32,
        "start": 3056
      }
    ]
  },
  "source": "// SPDX-License-Identifier: MIT\npragma solidity =0.7.6;\npragma abicoder v2;\n\nimport '@uniswap/v3-periphery/contracts/interfaces/ISwapRouter.sol';\nimport '@uniswap/v3-periphery/contracts/libraries/TransferHelper.sol';\n\n\ninterface ErcToken {\n      function transfer(address dst, uint wad) external returns (bool);\n      function transferFrom(address src, address dst, uint wad) external returns (bool);\n      function balanceOf(address guy) external view returns (uint);\n}\n\n\ncontract DCAWallet {\n  \n  enum TokenType{ USDC, WETH, WBTC}\n\n  // Ropsten addresses\n  address[] public token_addresses = [0x68ec573C119826db2eaEA1Efbfc2970cDaC869c4,  //USDC\n                                0xc778417E063141139Fce010982780140Aa0cD5Ab,  //WETH\n                                0xc3778758D19A654fA6d0bb3593Cf26916fB3d114];  //WBTC\n\n\n  mapping(address => mapping(uint => uint)) public tokenBalances; //owner address => tokenType enum => tokenbalance\n  mapping(address => uint[]) public portfolioAllocation;  // investment strategy for each owner\n  mapping(address => uint) public userTimelock;   //timelock where user can't withdraw tokens \n\n\n  ISwapRouter public immutable swapRouter = ISwapRouter(0xE592427A0AEce92De3Edee1F18E0157C05861564);\n  address swapRouter_address = 0xE592427A0AEce92De3Edee1F18E0157C05861564;    \n\n\n  uint24 public constant poolFee = 3000;\n  \n  ErcToken public usdcToken;\n  ErcToken public wethToken;\n  ErcToken public wbtcToken;\n\n  constructor() {\n     \n    usdcToken = ErcToken(token_addresses[0]);  \n    wethToken = ErcToken(token_addresses[1]);  \n    wbtcToken = ErcToken(token_addresses[2]);  \n  }\n\n\n\n  //User sets up/modifies portfolio allocation\n  function createPortfolioAllocation(uint[] memory _portfolio_allocation) public{\n    require(_portfolio_allocation.length == 3); // number of tokens under TokenType enum\n\n    uint i;\n    uint sum = 0;\n\n    for(i = 0; i<_portfolio_allocation.length; i++ ){\n      sum += _portfolio_allocation[i];\n    }\n\n    require(sum == 100);\n\n    portfolioAllocation[msg.sender] = _portfolio_allocation;\n\n  }\n\n  //Handle deposits of USDC\n  function usdcDeposited(uint _amount) public {\n    require(_amount > 0, \"amount should be greater than 0\");\n\n    // Need owner to approve token transfer via javascript UI first\n    usdcToken.transferFrom(msg.sender, address(this), _amount);\n\n    tokenBalances[msg.sender][uint(TokenType.USDC)] += _amount;\n\n  }\n\n  //Handle deposits of USDC\n  function usdcDepositedAndExecute(uint _amount) public {\n    require(_amount > 0, \"amount should be greater than 0\");\n\n    // Need owner to approve token transfer via javascript UI first\n    usdcToken.transferFrom(msg.sender, address(this), _amount);\n\n    tokenBalances[msg.sender][uint(TokenType.USDC)] += _amount;\n\n    executePortfolioBuys(_amount);\n  }\n\n  function executePortfolioBuys(uint _amount) public {\n    uint i;\n    \n    for(i = 1; i<portfolioAllocation[msg.sender].length; i++ ){\n      swapExactInputSingle( portfolioAllocation[msg.sender][i] * _amount / 100, i);\n    }\n\n\n\n  }\n\n  function swapExactInputSingle(uint256 amountIn, uint token_index) public returns (uint256 amountOut) {\n        // msg.sender must approve this contract\n\n        //Deduct USDC balance from sender\n        tokenBalances[msg.sender][uint(TokenType.USDC)] -= amountIn;\n\n        // Approve the router to spend USDC.\n        TransferHelper.safeApprove(token_addresses[0], swapRouter_address, amountIn);\n\n        // Naively set amountOutMinimum to 0. In production, use an oracle or other data source to choose a safer value for amountOutMinimum.\n        // We also set the sqrtPriceLimitx96 to be 0 to ensure we swap our exact input amount.\n        ISwapRouter.ExactInputSingleParams memory params =\n            ISwapRouter.ExactInputSingleParams({\n                tokenIn: token_addresses[0],\n                tokenOut: token_addresses[token_index],\n                fee: poolFee,\n                recipient: address(this),\n                deadline: block.timestamp,\n                amountIn: amountIn,\n                amountOutMinimum: 0,\n                sqrtPriceLimitX96: 0\n            });\n\n        // The call to `exactInputSingle` executes the swap.\n        amountOut = swapRouter.exactInputSingle(params);\n\n        //Add swapped token to senders balance\n        tokenBalances[msg.sender][token_index] += amountOut;\n    }\n\n  // User can set timelock to prevent any withdrawals/forced to hodl\n  function setTimelock(uint _unlockDate) public {\n      userTimelock[msg.sender] = _unlockDate;\n  }\n\n\n  //Withdraw/spend tokens from maturing vault\n  function withdrawTokens(uint amount, uint token_index) public {\n    require(block.timestamp >= userTimelock[msg.sender]);\n    require(tokenBalances[msg.sender][token_index] >= amount);\n\n    tokenBalances[msg.sender][token_index] -= amount;\n    ErcToken withdrawal_token = ErcToken(token_addresses[token_index]);\n    withdrawal_token.transfer(msg.sender, amount);\n  }\n\n\n}\n",
  "sourcePath": "/home/ngjoehoong88/blockchain-developer-bootcamp-final-project/contracts/DCAWallet.sol",
  "compiler": {
    "name": "solc",
    "version": "0.7.6+commit.7338295f.Emscripten.clang"
  },
  "schemaVersion": "3.4.3",
  "updatedAt": "2021-10-15T05:44:32.744Z",
  "networkType": "ethereum",
  "devdoc": {
    "kind": "dev",
    "methods": {},
    "version": 1
  },
  "userdoc": {
    "kind": "user",
    "methods": {},
    "version": 1
  }
}