{
  "contractName": "DCAWallet",
  "abi": [
    {
      "inputs": [],
      "stateMutability": "nonpayable",
      "type": "constructor"
    },
    {
      "inputs": [
        {
          "internalType": "address",
          "name": "",
          "type": "address"
        },
        {
          "internalType": "uint256",
          "name": "",
          "type": "uint256"
        }
      ],
      "name": "portfolioAllocation",
      "outputs": [
        {
          "internalType": "uint256",
          "name": "",
          "type": "uint256"
        }
      ],
      "stateMutability": "view",
      "type": "function",
      "constant": true
    },
    {
      "inputs": [
        {
          "internalType": "address",
          "name": "",
          "type": "address"
        },
        {
          "internalType": "uint256",
          "name": "",
          "type": "uint256"
        }
      ],
      "name": "tokenBalances",
      "outputs": [
        {
          "internalType": "uint256",
          "name": "",
          "type": "uint256"
        }
      ],
      "stateMutability": "view",
      "type": "function",
      "constant": true
    },
    {
      "inputs": [
        {
          "internalType": "address",
          "name": "",
          "type": "address"
        }
      ],
      "name": "userTimelock",
      "outputs": [
        {
          "internalType": "uint256",
          "name": "",
          "type": "uint256"
        }
      ],
      "stateMutability": "view",
      "type": "function",
      "constant": true
    },
    {
      "inputs": [
        {
          "internalType": "uint256[]",
          "name": "_portfolio_allocation",
          "type": "uint256[]"
        }
      ],
      "name": "createPortfolioAllocation",
      "outputs": [],
      "stateMutability": "nonpayable",
      "type": "function"
    },
    {
      "inputs": [
        {
          "internalType": "uint256",
          "name": "_amount",
          "type": "uint256"
        }
      ],
      "name": "daiDeposited",
      "outputs": [],
      "stateMutability": "nonpayable",
      "type": "function"
    },
    {
      "inputs": [
        {
          "internalType": "uint256",
          "name": "_amount",
          "type": "uint256"
        }
      ],
      "name": "daiDepositedAndExecute",
      "outputs": [],
      "stateMutability": "nonpayable",
      "type": "function"
    },
    {
      "inputs": [
        {
          "internalType": "uint256",
          "name": "_amount",
          "type": "uint256"
        }
      ],
      "name": "executePortfolioBuys",
      "outputs": [],
      "stateMutability": "nonpayable",
      "type": "function"
    },
    {
      "inputs": [
        {
          "internalType": "uint256",
          "name": "_amountIn",
          "type": "uint256"
        },
        {
          "internalType": "uint256",
          "name": "token_index",
          "type": "uint256"
        }
      ],
      "name": "swapExactInputSingle",
      "outputs": [
        {
          "internalType": "uint256",
          "name": "amountOut",
          "type": "uint256"
        }
      ],
      "stateMutability": "nonpayable",
      "type": "function"
    },
    {
      "inputs": [
        {
          "internalType": "uint256",
          "name": "_unlockDate",
          "type": "uint256"
        }
      ],
      "name": "setTimelockByDate",
      "outputs": [],
      "stateMutability": "nonpayable",
      "type": "function"
    },
    {
      "inputs": [
        {
          "internalType": "uint256",
          "name": "_hoursToLock",
          "type": "uint256"
        }
      ],
      "name": "setTimelockByHours",
      "outputs": [],
      "stateMutability": "nonpayable",
      "type": "function"
    },
    {
      "inputs": [
        {
          "internalType": "uint256",
          "name": "_daysToLock",
          "type": "uint256"
        }
      ],
      "name": "setTimelockByDays",
      "outputs": [],
      "stateMutability": "nonpayable",
      "type": "function"
    },
    {
      "inputs": [
        {
          "internalType": "uint256",
          "name": "amount",
          "type": "uint256"
        },
        {
          "internalType": "uint256",
          "name": "token_index",
          "type": "uint256"
        }
      ],
      "name": "withdrawTokens",
      "outputs": [],
      "stateMutability": "nonpayable",
      "type": "function"
    },
    {
      "inputs": [],
      "name": "convertExactEthToDai",
      "outputs": [],
      "stateMutability": "payable",
      "type": "function",
      "payable": true
    },
    {
      "inputs": [
        {
          "internalType": "address",
          "name": "user",
          "type": "address"
        },
        {
          "internalType": "uint256",
          "name": "token_index",
          "type": "uint256"
        }
      ],
      "name": "getTokenBalances",
      "outputs": [
        {
          "internalType": "uint256",
          "name": "",
          "type": "uint256"
        }
      ],
      "stateMutability": "view",
      "type": "function",
      "constant": true
    },
    {
      "inputs": [
        {
          "internalType": "address",
          "name": "user",
          "type": "address"
        }
      ],
      "name": "getPortfolioAllocation",
      "outputs": [
        {
          "internalType": "uint256[]",
          "name": "",
          "type": "uint256[]"
        }
      ],
      "stateMutability": "view",
      "type": "function",
      "constant": true
    },
    {
      "inputs": [
        {
          "internalType": "address",
          "name": "user",
          "type": "address"
        }
      ],
      "name": "getUserTimelock",
      "outputs": [
        {
          "internalType": "uint256",
          "name": "",
          "type": "uint256"
        }
      ],
      "stateMutability": "view",
      "type": "function",
      "constant": true
    }
  ],
  "bytecode": "0x60806040526040518060600160405280734f96fe3b7a6cf9725f59d353f723c1bdb64ca6aa73ffffffffffffffffffffffffffffffffffffffff1673ffffffffffffffffffffffffffffffffffffffff16815260200173d0a1e359811322d97991e03f863a0c30c2cf029c73ffffffffffffffffffffffffffffffffffffffff1673ffffffffffffffffffffffffffffffffffffffff16815260200173a36085f69e2889c224210f603d836748e7dc008873ffffffffffffffffffffffffffffffffffffffff1673ffffffffffffffffffffffffffffffffffffffff168152506000906003620000f192919062000273565b50348015620000ff57600080fd5b50600080815481106200010e57fe5b9060005260206000200160009054906101000a900473ffffffffffffffffffffffffffffffffffffffff16600460006101000a81548173ffffffffffffffffffffffffffffffffffffffff021916908373ffffffffffffffffffffffffffffffffffffffff16021790555060006001815481106200018857fe5b9060005260206000200160009054906101000a900473ffffffffffffffffffffffffffffffffffffffff16600560006101000a81548173ffffffffffffffffffffffffffffffffffffffff021916908373ffffffffffffffffffffffffffffffffffffffff16021790555060006002815481106200020257fe5b9060005260206000200160009054906101000a900473ffffffffffffffffffffffffffffffffffffffff16600660006101000a81548173ffffffffffffffffffffffffffffffffffffffff021916908373ffffffffffffffffffffffffffffffffffffffff16021790555062000321565b828054828255906000526020600020908101928215620002ef579160200282015b82811115620002ee5782518260006101000a81548173ffffffffffffffffffffffffffffffffffffffff021916908373ffffffffffffffffffffffffffffffffffffffff1602179055509160200191906001019062000294565b5b509050620002fe919062000302565b5090565b5b808211156200031d57600081600090555060010162000303565b5090565b611ee180620003316000396000f3fe6080604052600436106100f35760003560e01c8063835ea7ed1161008a578063ce11fc3911610059578063ce11fc391461033d578063dcd3d8bb14610366578063e8bca0cf1461038f578063ecbbf586146103cc576100f3565b8063835ea7ed146102855780639345321f146102ae578063b3d164ed146102d7578063ba7bd2aa14610314576100f3565b806348ff5665116100c657806348ff5665146101a557806349cdeeb9146101e25780636f048b661461021f57806376ef82471461025c576100f3565b80630a4c157b146100f85780630bf73e1a14610121578063302b486a1461015e57806341d53ee91461019b575b600080fd5b34801561010457600080fd5b5061011f600480360381019061011a919061190e565b6103f5565b005b34801561012d57600080fd5b5061014860048036038101906101439190611868565b61055f565b6040516101559190611d0a565b60405180910390f35b34801561016a57600080fd5b506101856004803603810190610180919061183f565b610590565b6040516101929190611d0a565b60405180910390f35b6101a36105a8565b005b3480156101b157600080fd5b506101cc60048036038101906101c79190611868565b6108eb565b6040516101d99190611d0a565b60405180910390f35b3480156101ee57600080fd5b5061020960048036038101906102049190611960565b610910565b6040516102169190611d0a565b60405180910390f35b34801561022b57600080fd5b506102466004803603810190610241919061183f565b610d2e565b6040516102539190611c6c565b60405180910390f35b34801561026857600080fd5b50610283600480360381019061027e919061190e565b610dc5565b005b34801561029157600080fd5b506102ac60048036038101906102a7919061190e565b610e63565b005b3480156102ba57600080fd5b506102d560048036038101906102d0919061190e565b610fc4565b005b3480156102e357600080fd5b506102fe60048036038101906102f9919061183f565b611056565b60405161030b9190611d0a565b60405180910390f35b34801561032057600080fd5b5061033b60048036038101906103369190611960565b61109f565b005b34801561034957600080fd5b50610364600480360381019061035f91906118a4565b611274565b005b34801561037257600080fd5b5061038d6004803603810190610388919061190e565b611322565b005b34801561039b57600080fd5b506103b660048036038101906103b19190611868565b6113c2565b6040516103c39190611d0a565b60405180910390f35b3480156103d857600080fd5b506103f360048036038101906103ee919061190e565b61141d565b005b60008111610438576040517f08c379a000000000000000000000000000000000000000000000000000000000815260040161042f90611c8e565b60405180910390fd5b600460009054906101000a900473ffffffffffffffffffffffffffffffffffffffff1673ffffffffffffffffffffffffffffffffffffffff166323b872dd3330846040518463ffffffff1660e01b815260040161049793929190611c0c565b602060405180830381600087803b1580156104b157600080fd5b505af11580156104c5573d6000803e3d6000fd5b505050506040513d601f19601f820116820180604052508101906104e991906118e5565b5080600160003373ffffffffffffffffffffffffffffffffffffffff1673ffffffffffffffffffffffffffffffffffffffff168152602001908152602001600020600080600281111561053857fe5b81526020019081526020016000206000828254019250508190555061055c8161141d565b50565b6002602052816000526040600020818154811061057b57600080fd5b90600052602060002001600091509150505481565b60036020528060005260406000206000915090505481565b600034116105eb576040517f08c379a00000000000000000000000000000000000000000000000000000000081526004016105e290611cae565b60405180910390fd5b6000600f4201905060008060018154811061060257fe5b9060005260206000200160009054906101000a900473ffffffffffffffffffffffffffffffffffffffff16905060008060008154811061063e57fe5b9060005260206000200160009054906101000a900473ffffffffffffffffffffffffffffffffffffffff1690506000610bb890506000339050600034905060008060006040518061010001604052808973ffffffffffffffffffffffffffffffffffffffff1681526020018873ffffffffffffffffffffffffffffffffffffffff1681526020018762ffffff1681526020018673ffffffffffffffffffffffffffffffffffffffff1681526020018a81526020018581526020018481526020018373ffffffffffffffffffffffffffffffffffffffff168152509050600073e592427a0aece92de3edee1f18e0157c0586156473ffffffffffffffffffffffffffffffffffffffff1663414bf38934846040518363ffffffff1660e01b815260040161076a9190611cee565b6020604051808303818588803b15801561078357600080fd5b505af1158015610797573d6000803e3d6000fd5b50505050506040513d601f19601f820116820180604052508101906107bc9190611937565b905073e592427a0aece92de3edee1f18e0157c0586156473ffffffffffffffffffffffffffffffffffffffff166312210e8a6040518163ffffffff1660e01b8152600401600060405180830381600087803b15801561081a57600080fd5b505af115801561082e573d6000803e3d6000fd5b5050505060003373ffffffffffffffffffffffffffffffffffffffff164760405161085890611bf7565b60006040518083038185875af1925050503d8060008114610895576040519150601f19603f3d011682016040523d82523d6000602084013e61089a565b606091505b50509050806108de576040517f08c379a00000000000000000000000000000000000000000000000000000000081526004016108d590611cce565b60405180910390fd5b5050505050505050505050565b6001602052816000526040600020602052806000526040600020600091509150505481565b600082600160003373ffffffffffffffffffffffffffffffffffffffff1673ffffffffffffffffffffffffffffffffffffffff168152602001908152602001600020600080600281111561096057fe5b8152602001908152602001600020600082825403925050819055506109d16000808154811061098b57fe5b9060005260206000200160009054906101000a900473ffffffffffffffffffffffffffffffffffffffff1673e592427a0aece92de3edee1f18e0157c05861564856114ea565b6000600f420190506000806000815481106109e857fe5b9060005260206000200160009054906101000a900473ffffffffffffffffffffffffffffffffffffffff1690506000808581548110610a2357fe5b9060005260206000200160009054906101000a900473ffffffffffffffffffffffffffffffffffffffff1690506000610bb890506000309050600088905060008060006040518061010001604052808973ffffffffffffffffffffffffffffffffffffffff1681526020018873ffffffffffffffffffffffffffffffffffffffff1681526020018762ffffff1681526020018673ffffffffffffffffffffffffffffffffffffffff1681526020018a81526020018581526020018481526020018373ffffffffffffffffffffffffffffffffffffffff16815250905073e592427a0aece92de3edee1f18e0157c0586156473ffffffffffffffffffffffffffffffffffffffff1663414bf389826040518263ffffffff1660e01b8152600401610b4c9190611cee565b602060405180830381600087803b158015610b6657600080fd5b505af1158015610b7a573d6000803e3d6000fd5b505050506040513d601f19601f82011682018060405250810190610b9e9190611937565b995073e592427a0aece92de3edee1f18e0157c0586156473ffffffffffffffffffffffffffffffffffffffff166312210e8a6040518163ffffffff1660e01b8152600401600060405180830381600087803b158015610bfc57600080fd5b505af1158015610c10573d6000803e3d6000fd5b5050505060003373ffffffffffffffffffffffffffffffffffffffff1647604051610c3a90611bf7565b60006040518083038185875af1925050503d8060008114610c77576040519150601f19603f3d011682016040523d82523d6000602084013e610c7c565b606091505b5050905080610cc0576040517f08c379a0000000000000000000000000000000000000000000000000000000008152600401610cb790611cce565b60405180910390fd5b8a600160003373ffffffffffffffffffffffffffffffffffffffff1673ffffffffffffffffffffffffffffffffffffffff16815260200190815260200160002060008e8152602001908152602001600020600082825401925050819055505050505050505050505092915050565b6060600260008373ffffffffffffffffffffffffffffffffffffffff1673ffffffffffffffffffffffffffffffffffffffff168152602001908152602001600020805480602002602001604051908101604052809291908181526020018280548015610db957602002820191906000526020600020905b815481526020019060010190808311610da5575b50505050509050919050565b600360003373ffffffffffffffffffffffffffffffffffffffff1673ffffffffffffffffffffffffffffffffffffffff16815260200190815260200160002054610e108202420111610e1657600080fd5b610e1081024201600360003373ffffffffffffffffffffffffffffffffffffffff1673ffffffffffffffffffffffffffffffffffffffff1681526020019081526020016000208190555050565b60008111610ea6576040517f08c379a0000000000000000000000000000000000000000000000000000000008152600401610e9d90611c8e565b60405180910390fd5b600460009054906101000a900473ffffffffffffffffffffffffffffffffffffffff1673ffffffffffffffffffffffffffffffffffffffff166323b872dd3330846040518463ffffffff1660e01b8152600401610f0593929190611c0c565b602060405180830381600087803b158015610f1f57600080fd5b505af1158015610f33573d6000803e3d6000fd5b505050506040513d601f19601f82011682018060405250810190610f5791906118e5565b5080600160003373ffffffffffffffffffffffffffffffffffffffff1673ffffffffffffffffffffffffffffffffffffffff1681526020019081526020016000206000806002811115610fa657fe5b81526020019081526020016000206000828254019250508190555050565b600360003373ffffffffffffffffffffffffffffffffffffffff1673ffffffffffffffffffffffffffffffffffffffff16815260200190815260200160002054811161100f57600080fd5b80600360003373ffffffffffffffffffffffffffffffffffffffff1673ffffffffffffffffffffffffffffffffffffffff1681526020019081526020016000208190555050565b6000600360008373ffffffffffffffffffffffffffffffffffffffff1673ffffffffffffffffffffffffffffffffffffffff168152602001908152602001600020549050919050565b600360003373ffffffffffffffffffffffffffffffffffffffff1673ffffffffffffffffffffffffffffffffffffffff168152602001908152602001600020544210156110eb57600080fd5b81600160003373ffffffffffffffffffffffffffffffffffffffff1673ffffffffffffffffffffffffffffffffffffffff168152602001908152602001600020600083815260200190815260200160002054101561114857600080fd5b81600160003373ffffffffffffffffffffffffffffffffffffffff1673ffffffffffffffffffffffffffffffffffffffff16815260200190815260200160002060008381526020019081526020016000206000828254039250508190555060008082815481106111b457fe5b9060005260206000200160009054906101000a900473ffffffffffffffffffffffffffffffffffffffff1690508073ffffffffffffffffffffffffffffffffffffffff1663a9059cbb33856040518363ffffffff1660e01b815260040161121c929190611c43565b602060405180830381600087803b15801561123657600080fd5b505af115801561124a573d6000803e3d6000fd5b505050506040513d601f19601f8201168201806040525081019061126e91906118e5565b50505050565b600381511461128257600080fd5b60008060009050600091505b82518210156112bc578282815181106112a357fe5b602002602001015181019050818060010192505061128e565b606481146112c957600080fd5b82600260003373ffffffffffffffffffffffffffffffffffffffff1673ffffffffffffffffffffffffffffffffffffffff168152602001908152602001600020908051906020019061131c9291906116eb565b50505050565b600360003373ffffffffffffffffffffffffffffffffffffffff1673ffffffffffffffffffffffffffffffffffffffff1681526020019081526020016000205462015180820242011161137457600080fd5b6201518081024201600360003373ffffffffffffffffffffffffffffffffffffffff1673ffffffffffffffffffffffffffffffffffffffff1681526020019081526020016000208190555050565b6000600160008473ffffffffffffffffffffffffffffffffffffffff1673ffffffffffffffffffffffffffffffffffffffff168152602001908152602001600020600083815260200190815260200160002054905092915050565b6000600190505b600260003373ffffffffffffffffffffffffffffffffffffffff1673ffffffffffffffffffffffffffffffffffffffff168152602001908152602001600020805490508110156114e6576114d8606483600260003373ffffffffffffffffffffffffffffffffffffffff1673ffffffffffffffffffffffffffffffffffffffff16815260200190815260200160002084815481106114be57fe5b906000526020600020015402816114d157fe5b0482610910565b508080600101915050611424565b5050565b6000808473ffffffffffffffffffffffffffffffffffffffff1663095ea7b360e01b8585604051602401808373ffffffffffffffffffffffffffffffffffffffff16815260200182815260200192505050604051602081830303815290604052907bffffffffffffffffffffffffffffffffffffffffffffffffffffffff19166020820180517bffffffffffffffffffffffffffffffffffffffffffffffffffffffff83818316178352505050506040518082805190602001908083835b602083106115cb57805182526020820191506020810190506020830392506115a8565b6001836020036101000a0380198251168184511680821785525050505050509050019150506000604051808303816000865af19150503d806000811461162d576040519150601f19603f3d011682016040523d82523d6000602084013e611632565b606091505b50915091508180156116725750600081511480611671575080806020019051602081101561165f57600080fd5b81019080805190602001909291905050505b5b6116e4576040517f08c379a00000000000000000000000000000000000000000000000000000000081526004018080602001828103825260028152602001807f534100000000000000000000000000000000000000000000000000000000000081525060200191505060405180910390fd5b5050505050565b828054828255906000526020600020908101928215611727579160200282015b8281111561172657825182559160200191906001019061170b565b5b5090506117349190611738565b5090565b5b80821115611751576000816000905550600101611739565b5090565b600061176861176384611d56565b611d25565b9050808382526020820190508285602086028201111561178757600080fd5b60005b858110156117b7578161179d8882611815565b84526020840193506020830192505060018101905061178a565b5050509392505050565b6000813590506117d081611e66565b92915050565b600082601f8301126117e757600080fd5b81356117f7848260208601611755565b91505092915050565b60008151905061180f81611e7d565b92915050565b60008135905061182481611e94565b92915050565b60008151905061183981611e94565b92915050565b60006020828403121561185157600080fd5b600061185f848285016117c1565b91505092915050565b6000806040838503121561187b57600080fd5b6000611889858286016117c1565b925050602061189a85828601611815565b9150509250929050565b6000602082840312156118b657600080fd5b600082013567ffffffffffffffff8111156118d057600080fd5b6118dc848285016117d6565b91505092915050565b6000602082840312156118f757600080fd5b600061190584828501611800565b91505092915050565b60006020828403121561192057600080fd5b600061192e84828501611815565b91505092915050565b60006020828403121561194957600080fd5b60006119578482850161182a565b91505092915050565b6000806040838503121561197357600080fd5b600061198185828601611815565b925050602061199285828601611815565b9150509250929050565b60006119a88383611bd9565b60208301905092915050565b6119bd81611e2e565b82525050565b6119cc81611dd7565b82525050565b6119db81611dd7565b82525050565b60006119ec82611d92565b6119f68185611daa565b9350611a0183611d82565b8060005b83811015611a32578151611a19888261199c565b9750611a2483611d9d565b925050600181019050611a05565b5085935050505092915050565b6000611a4c601f83611dc6565b91507f616d6f756e742073686f756c642062652067726561746572207468616e2030006000830152602082019050919050565b6000611a8c600083611dbb565b9150600082019050919050565b6000611aa6601a83611dc6565b91507f4d7573742070617373206e6f6e20302045544820616d6f756e740000000000006000830152602082019050919050565b6000611ae6600d83611dc6565b91507f726566756e64206661696c6564000000000000000000000000000000000000006000830152602082019050919050565b61010082016000820151611b3060008501826119c3565b506020820151611b4360208501826119c3565b506040820151611b566040850182611bca565b506060820151611b6960608501826119c3565b506080820151611b7c6080850182611bd9565b5060a0820151611b8f60a0850182611bd9565b5060c0820151611ba260c0850182611bd9565b5060e0820151611bb560e0850182611bbb565b50505050565b611bc481611df5565b82525050565b611bd381611e15565b82525050565b611be281611e24565b82525050565b611bf181611e24565b82525050565b6000611c0282611a7f565b9150819050919050565b6000606082019050611c2160008301866119b4565b611c2e60208301856119d2565b611c3b6040830184611be8565b949350505050565b6000604082019050611c5860008301856119b4565b611c656020830184611be8565b9392505050565b60006020820190508181036000830152611c8681846119e1565b905092915050565b60006020820190508181036000830152611ca781611a3f565b9050919050565b60006020820190508181036000830152611cc781611a99565b9050919050565b60006020820190508181036000830152611ce781611ad9565b9050919050565b600061010082019050611d046000830184611b19565b92915050565b6000602082019050611d1f6000830184611be8565b92915050565b6000604051905081810181811067ffffffffffffffff82111715611d4c57611d4b611e64565b5b8060405250919050565b600067ffffffffffffffff821115611d7157611d70611e64565b5b602082029050602081019050919050565b6000819050602082019050919050565b600081519050919050565b6000602082019050919050565b600082825260208201905092915050565b600081905092915050565b600082825260208201905092915050565b6000611de282611df5565b9050919050565b60008115159050919050565b600073ffffffffffffffffffffffffffffffffffffffff82169050919050565b600062ffffff82169050919050565b6000819050919050565b6000611e3982611e40565b9050919050565b6000611e4b82611e52565b9050919050565b6000611e5d82611df5565b9050919050565bfe5b611e6f81611dd7565b8114611e7a57600080fd5b50565b611e8681611de9565b8114611e9157600080fd5b50565b611e9d81611e24565b8114611ea857600080fd5b5056fea2646970667358221220ffdc413422ff0f59ad7fd3d130a8a3a68895c75c7c8210235405deed0de3659a64736f6c63430007060033",
  "immutableReferences": {},
  "source": "// SPDX-License-Identifier: MIT\npragma solidity =0.7.6;\npragma abicoder v2;\n\nimport '@uniswap/v3-periphery/contracts/interfaces/ISwapRouter.sol';\nimport '@uniswap/v3-periphery/contracts/libraries/TransferHelper.sol';\nimport \"@uniswap/v3-periphery/contracts/interfaces/IQuoter.sol\";\n\ninterface IUniswapRouter is ISwapRouter {\n    function refundETH() external payable;\n}\n\ninterface ErcToken {\n      function transfer(address dst, uint wad) external returns (bool);\n      function transferFrom(address src, address dst, uint wad) external returns (bool);\n      function balanceOf(address guy) external view returns (uint);\n}\n\n\ncontract DCAWallet {\n\n  // Kovan addresses\n  IUniswapRouter internal constant uniswapRouter = IUniswapRouter(0xE592427A0AEce92De3Edee1F18E0157C05861564);\n  IQuoter internal constant quoter = IQuoter(0xb27308f9F90D607463bb33eA1BeBb41C27CE5AB6);\n  address[] internal token_addresses = [0x4F96Fe3b7A6Cf9725f59d353F723c1bDb64CA6Aa,  //DAI\n                                0xd0A1E359811322d97991E03f863a0C30C2cF029C,  //WETH\n                                0xa36085F69e2889c224210F603D836748e7dC0088];  //LINK\n\n  \n\n  mapping(address => mapping(uint => uint)) public tokenBalances; //owner address => tokenType enum => tokenbalance\n  mapping(address => uint[]) public portfolioAllocation;  // investment strategy for each owner\n  mapping(address => uint) public userTimelock;   //timelock where user can't withdraw tokens \n\n  uint24 internal constant poolFee = 3000;\n  \n  enum TokenType{ DAI, WETH, LINK}\n\n  ErcToken internal daiToken;\n  ErcToken internal wethToken;\n  ErcToken internal linkToken;\n\n  constructor() {\n     \n    daiToken = ErcToken(token_addresses[0]);  \n    wethToken = ErcToken(token_addresses[1]);  \n    linkToken = ErcToken(token_addresses[2]);  \n  }\n\n  //User sets up/modifies portfolio allocation\n  function createPortfolioAllocation(uint[] memory _portfolio_allocation) public{\n    require(_portfolio_allocation.length == 3); // number of tokens under TokenType enum\n\n    uint i;\n    uint sum = 0;\n\n    for(i = 0; i<_portfolio_allocation.length; i++ ){\n      sum += _portfolio_allocation[i];\n    }\n\n    require(sum == 100);\n\n    portfolioAllocation[msg.sender] = _portfolio_allocation;\n\n  }\n\n  //Handle deposits of dai\n  function daiDeposited(uint _amount) public {\n    require(_amount > 0, \"amount should be greater than 0\");\n\n    // Need owner to approve token transfer via javascript UI first\n    daiToken.transferFrom(msg.sender, address(this), _amount);\n\n    tokenBalances[msg.sender][uint(TokenType.DAI)] += _amount;\n\n  }\n\n  //Handle deposits of dai\n  function daiDepositedAndExecute(uint _amount) public {\n    require(_amount > 0, \"amount should be greater than 0\");\n\n    // Need owner to approve token transfer via javascript UI first\n    daiToken.transferFrom(msg.sender, address(this), _amount);\n\n    tokenBalances[msg.sender][uint(TokenType.DAI)] += _amount;\n\n    executePortfolioBuys(_amount);\n  }\n\n  function executePortfolioBuys(uint _amount) public {\n    uint i;\n    \n    for(i = 1; i<portfolioAllocation[msg.sender].length; i++ ){\n      swapExactInputSingle( portfolioAllocation[msg.sender][i] * _amount / 100, i);\n    }\n\n\n\n  }\n\n  function swapExactInputSingle(uint256 _amountIn, uint token_index) public returns (uint256 amountOut) {\n        // msg.sender must approve this contract\n\n        //Deduct dai balance from sender\n        tokenBalances[msg.sender][uint(TokenType.DAI)] -= _amountIn;\n\n\n        // Approve the router to spend DAI.\n        TransferHelper.safeApprove(token_addresses[0], address(uniswapRouter), _amountIn);\n\n        uint256 deadline = block.timestamp + 15; // using 'now' for convenience, for mainnet pass deadline from frontend!\n        address tokenIn = token_addresses[0];\n        address tokenOut = token_addresses[token_index];\n        uint24 fee = 3000;\n        address recipient = address(this);\n        uint256 amountIn = _amountIn;\n        uint256 amountOutMinimum = 0;\n        uint160 sqrtPriceLimitX96 = 0;\n        \n        ISwapRouter.ExactInputSingleParams memory params = ISwapRouter.ExactInputSingleParams(\n            tokenIn,\n            tokenOut,\n            fee,\n            recipient,\n            deadline,\n            amountIn,\n            amountOutMinimum,\n            sqrtPriceLimitX96\n        );\n        \n        amountOut = uniswapRouter.exactInputSingle(params);\n        uniswapRouter.refundETH();\n        \n        // refund leftover ETH to user\n        (bool success,) = msg.sender.call{ value: address(this).balance }(\"\");\n        require(success, \"refund failed\");\n\n        //Add swapped token to senders balance\n        tokenBalances[msg.sender][token_index] += amountOut;\n    }\n\n  // User can set timelock to prevent any withdrawals/forced to hodl\n  function setTimelockByDate(uint _unlockDate) public {\n    require(_unlockDate > userTimelock[msg.sender] );\n    userTimelock[msg.sender] = _unlockDate;\n  }\n\n  function setTimelockByHours(uint _hoursToLock) public {\n    require(block.timestamp + _hoursToLock * 1 hours > userTimelock[msg.sender] );\n    userTimelock[msg.sender] = block.timestamp + _hoursToLock * 1 hours;\n  }\n\n  function setTimelockByDays(uint _daysToLock) public {\n    require(block.timestamp + _daysToLock * 1 days > userTimelock[msg.sender] );\n    userTimelock[msg.sender] = block.timestamp + _daysToLock * 1 days;\n  }\n\n\n  //Withdraw/spend tokens from maturing vault\n  function withdrawTokens(uint amount, uint token_index) public {\n    require(block.timestamp >= userTimelock[msg.sender]);\n    require(tokenBalances[msg.sender][token_index] >= amount);\n\n    tokenBalances[msg.sender][token_index] -= amount;\n    ErcToken withdrawal_token = ErcToken(token_addresses[token_index]);\n    withdrawal_token.transfer(msg.sender, amount);\n  }\n\n\n  //convenience function to swap eth to dai for test cases\n  function convertExactEthToDai() external payable {\n    require(msg.value > 0, \"Must pass non 0 ETH amount\");\n\n    uint256 deadline = block.timestamp + 15; // using 'now' for convenience, for mainnet pass deadline from frontend!\n    address tokenIn = token_addresses[1];\n    address tokenOut = token_addresses[0];\n    uint24 fee = 3000;\n    address recipient = msg.sender;\n    uint256 amountIn = msg.value;\n    uint256 amountOutMinimum = 0;\n    uint160 sqrtPriceLimitX96 = 0;\n    \n    ISwapRouter.ExactInputSingleParams memory params = ISwapRouter.ExactInputSingleParams(\n        tokenIn,\n        tokenOut,\n        fee,\n        recipient,\n        deadline,\n        amountIn,\n        amountOutMinimum,\n        sqrtPriceLimitX96\n    );\n    \n    uint amountOut = uniswapRouter.exactInputSingle{ value: msg.value }(params);\n    uniswapRouter.refundETH();\n    \n    // refund leftover ETH to user\n    (bool success,) = msg.sender.call{ value: address(this).balance }(\"\");\n    require(success, \"refund failed\");\n  }\n\n  //getters for mapping\n  function getTokenBalances(address user, uint token_index) public view returns (uint256) {\n    return tokenBalances[user][token_index];\n  }\n\n  function getPortfolioAllocation(address user) public view returns (uint256[] memory) {\n    return portfolioAllocation[user];\n  }\n\n  function getUserTimelock(address user) public view returns (uint256) {\n    return userTimelock[user];\n  }\n\n\n}\n",
  "sourcePath": "/home/ngjoehoong88/blockchain-developer-bootcamp-final-project/contracts/DCAWallet.sol",
  "compiler": {
    "name": "solc",
    "version": "0.7.6+commit.7338295f.Emscripten.clang"
  },
  "schemaVersion": "3.4.3",
  "updatedAt": "2021-10-19T01:58:12.489Z",
  "networkType": "ethereum",
  "devdoc": {
    "kind": "dev",
    "methods": {},
    "version": 1
  },
  "userdoc": {
    "kind": "user",
    "methods": {},
    "version": 1
  }
}