{
  "contractName": "DCAWallet",
  "abi": [
    {
      "inputs": [],
      "stateMutability": "nonpayable",
      "type": "constructor"
    },
    {
      "inputs": [
        {
          "internalType": "uint256[]",
          "name": "_portfolio_allocation",
          "type": "uint256[]"
        }
      ],
      "name": "createPortfolioAllocation",
      "outputs": [],
      "stateMutability": "nonpayable",
      "type": "function"
    },
    {
      "inputs": [
        {
          "internalType": "uint256",
          "name": "_amount",
          "type": "uint256"
        }
      ],
      "name": "daiDeposited",
      "outputs": [],
      "stateMutability": "nonpayable",
      "type": "function"
    },
    {
      "inputs": [
        {
          "internalType": "uint256",
          "name": "_amount",
          "type": "uint256"
        }
      ],
      "name": "daiDepositedAndExecute",
      "outputs": [],
      "stateMutability": "nonpayable",
      "type": "function"
    },
    {
      "inputs": [
        {
          "internalType": "uint256",
          "name": "_amount",
          "type": "uint256"
        }
      ],
      "name": "executePortfolioBuys",
      "outputs": [],
      "stateMutability": "nonpayable",
      "type": "function"
    },
    {
      "inputs": [
        {
          "internalType": "uint256",
          "name": "_amountIn",
          "type": "uint256"
        },
        {
          "internalType": "uint256",
          "name": "token_index",
          "type": "uint256"
        }
      ],
      "name": "swapExactInputSingle",
      "outputs": [
        {
          "internalType": "uint256",
          "name": "amountOut",
          "type": "uint256"
        }
      ],
      "stateMutability": "nonpayable",
      "type": "function"
    },
    {
      "inputs": [
        {
          "internalType": "uint256",
          "name": "_unlockDate",
          "type": "uint256"
        }
      ],
      "name": "setTimelockByDate",
      "outputs": [],
      "stateMutability": "nonpayable",
      "type": "function"
    },
    {
      "inputs": [
        {
          "internalType": "uint256",
          "name": "_hoursToLock",
          "type": "uint256"
        }
      ],
      "name": "setTimelockByHours",
      "outputs": [],
      "stateMutability": "nonpayable",
      "type": "function"
    },
    {
      "inputs": [
        {
          "internalType": "uint256",
          "name": "_daysToLock",
          "type": "uint256"
        }
      ],
      "name": "setTimelockByDays",
      "outputs": [],
      "stateMutability": "nonpayable",
      "type": "function"
    },
    {
      "inputs": [
        {
          "internalType": "uint256",
          "name": "amount",
          "type": "uint256"
        },
        {
          "internalType": "uint256",
          "name": "token_index",
          "type": "uint256"
        }
      ],
      "name": "withdrawTokens",
      "outputs": [],
      "stateMutability": "nonpayable",
      "type": "function"
    },
    {
      "inputs": [],
      "name": "convertExactEthToDai",
      "outputs": [],
      "stateMutability": "payable",
      "type": "function",
      "payable": true
    },
    {
      "inputs": [
        {
          "internalType": "address",
          "name": "user",
          "type": "address"
        },
        {
          "internalType": "uint256",
          "name": "token_index",
          "type": "uint256"
        }
      ],
      "name": "getTokenBalances",
      "outputs": [
        {
          "internalType": "uint256",
          "name": "",
          "type": "uint256"
        }
      ],
      "stateMutability": "view",
      "type": "function",
      "constant": true
    },
    {
      "inputs": [
        {
          "internalType": "address",
          "name": "user",
          "type": "address"
        }
      ],
      "name": "getPortfolioAllocation",
      "outputs": [
        {
          "internalType": "uint256[]",
          "name": "",
          "type": "uint256[]"
        }
      ],
      "stateMutability": "view",
      "type": "function",
      "constant": true
    },
    {
      "inputs": [
        {
          "internalType": "address",
          "name": "user",
          "type": "address"
        }
      ],
      "name": "getUserTimelock",
      "outputs": [
        {
          "internalType": "uint256",
          "name": "",
          "type": "uint256"
        }
      ],
      "stateMutability": "view",
      "type": "function",
      "constant": true
    }
  ],
  "bytecode": "0x60806040526040518060600160405280734f96fe3b7a6cf9725f59d353f723c1bdb64ca6aa73ffffffffffffffffffffffffffffffffffffffff1673ffffffffffffffffffffffffffffffffffffffff16815260200173d0a1e359811322d97991e03f863a0c30c2cf029c73ffffffffffffffffffffffffffffffffffffffff1673ffffffffffffffffffffffffffffffffffffffff16815260200173a36085f69e2889c224210f603d836748e7dc008873ffffffffffffffffffffffffffffffffffffffff1673ffffffffffffffffffffffffffffffffffffffff168152506000906003620000f192919062000273565b50348015620000ff57600080fd5b50600080815481106200010e57fe5b9060005260206000200160009054906101000a900473ffffffffffffffffffffffffffffffffffffffff16600460006101000a81548173ffffffffffffffffffffffffffffffffffffffff021916908373ffffffffffffffffffffffffffffffffffffffff16021790555060006001815481106200018857fe5b9060005260206000200160009054906101000a900473ffffffffffffffffffffffffffffffffffffffff16600560006101000a81548173ffffffffffffffffffffffffffffffffffffffff021916908373ffffffffffffffffffffffffffffffffffffffff16021790555060006002815481106200020257fe5b9060005260206000200160009054906101000a900473ffffffffffffffffffffffffffffffffffffffff16600660006101000a81548173ffffffffffffffffffffffffffffffffffffffff021916908373ffffffffffffffffffffffffffffffffffffffff16021790555062000321565b828054828255906000526020600020908101928215620002ef579160200282015b82811115620002ee5782518260006101000a81548173ffffffffffffffffffffffffffffffffffffffff021916908373ffffffffffffffffffffffffffffffffffffffff1602179055509160200191906001019062000294565b5b509050620002fe919062000302565b5090565b5b808211156200031d57600081600090555060010162000303565b5090565b611d8b80620003316000396000f3fe6080604052600436106100c25760003560e01c80639345321f1161007f578063ce11fc3911610059578063ce11fc3914610255578063dcd3d8bb1461027e578063e8bca0cf146102a7578063ecbbf586146102e4576100c2565b80639345321f146101c6578063b3d164ed146101ef578063ba7bd2aa1461022c576100c2565b80630a4c157b146100c757806341d53ee9146100f057806349cdeeb9146100fa5780636f048b661461013757806376ef824714610174578063835ea7ed1461019d575b600080fd5b3480156100d357600080fd5b506100ee60048036038101906100e991906117b8565b61030d565b005b6100f8610477565b005b34801561010657600080fd5b50610121600480360381019061011c919061180a565b6107ba565b60405161012e9190611bb4565b60405180910390f35b34801561014357600080fd5b5061015e600480360381019061015991906116e9565b610bd8565b60405161016b9190611b16565b60405180910390f35b34801561018057600080fd5b5061019b600480360381019061019691906117b8565b610c6f565b005b3480156101a957600080fd5b506101c460048036038101906101bf91906117b8565b610d0d565b005b3480156101d257600080fd5b506101ed60048036038101906101e891906117b8565b610e6e565b005b3480156101fb57600080fd5b50610216600480360381019061021191906116e9565b610f00565b6040516102239190611bb4565b60405180910390f35b34801561023857600080fd5b50610253600480360381019061024e919061180a565b610f49565b005b34801561026157600080fd5b5061027c6004803603810190610277919061174e565b61111e565b005b34801561028a57600080fd5b506102a560048036038101906102a091906117b8565b6111cc565b005b3480156102b357600080fd5b506102ce60048036038101906102c99190611712565b61126c565b6040516102db9190611bb4565b60405180910390f35b3480156102f057600080fd5b5061030b600480360381019061030691906117b8565b6112c7565b005b60008111610350576040517f08c379a000000000000000000000000000000000000000000000000000000000815260040161034790611b38565b60405180910390fd5b600460009054906101000a900473ffffffffffffffffffffffffffffffffffffffff1673ffffffffffffffffffffffffffffffffffffffff166323b872dd3330846040518463ffffffff1660e01b81526004016103af93929190611ab6565b602060405180830381600087803b1580156103c957600080fd5b505af11580156103dd573d6000803e3d6000fd5b505050506040513d601f19601f82011682018060405250810190610401919061178f565b5080600160003373ffffffffffffffffffffffffffffffffffffffff1673ffffffffffffffffffffffffffffffffffffffff168152602001908152602001600020600080600281111561045057fe5b815260200190815260200160002060008282540192505081905550610474816112c7565b50565b600034116104ba576040517f08c379a00000000000000000000000000000000000000000000000000000000081526004016104b190611b58565b60405180910390fd5b6000600f420190506000806001815481106104d157fe5b9060005260206000200160009054906101000a900473ffffffffffffffffffffffffffffffffffffffff16905060008060008154811061050d57fe5b9060005260206000200160009054906101000a900473ffffffffffffffffffffffffffffffffffffffff1690506000610bb890506000339050600034905060008060006040518061010001604052808973ffffffffffffffffffffffffffffffffffffffff1681526020018873ffffffffffffffffffffffffffffffffffffffff1681526020018762ffffff1681526020018673ffffffffffffffffffffffffffffffffffffffff1681526020018a81526020018581526020018481526020018373ffffffffffffffffffffffffffffffffffffffff168152509050600073e592427a0aece92de3edee1f18e0157c0586156473ffffffffffffffffffffffffffffffffffffffff1663414bf38934846040518363ffffffff1660e01b81526004016106399190611b98565b6020604051808303818588803b15801561065257600080fd5b505af1158015610666573d6000803e3d6000fd5b50505050506040513d601f19601f8201168201806040525081019061068b91906117e1565b905073e592427a0aece92de3edee1f18e0157c0586156473ffffffffffffffffffffffffffffffffffffffff166312210e8a6040518163ffffffff1660e01b8152600401600060405180830381600087803b1580156106e957600080fd5b505af11580156106fd573d6000803e3d6000fd5b5050505060003373ffffffffffffffffffffffffffffffffffffffff164760405161072790611aa1565b60006040518083038185875af1925050503d8060008114610764576040519150601f19603f3d011682016040523d82523d6000602084013e610769565b606091505b50509050806107ad576040517f08c379a00000000000000000000000000000000000000000000000000000000081526004016107a490611b78565b60405180910390fd5b5050505050505050505050565b600082600160003373ffffffffffffffffffffffffffffffffffffffff1673ffffffffffffffffffffffffffffffffffffffff168152602001908152602001600020600080600281111561080a57fe5b81526020019081526020016000206000828254039250508190555061087b6000808154811061083557fe5b9060005260206000200160009054906101000a900473ffffffffffffffffffffffffffffffffffffffff1673e592427a0aece92de3edee1f18e0157c0586156485611394565b6000600f4201905060008060008154811061089257fe5b9060005260206000200160009054906101000a900473ffffffffffffffffffffffffffffffffffffffff16905060008085815481106108cd57fe5b9060005260206000200160009054906101000a900473ffffffffffffffffffffffffffffffffffffffff1690506000610bb890506000309050600088905060008060006040518061010001604052808973ffffffffffffffffffffffffffffffffffffffff1681526020018873ffffffffffffffffffffffffffffffffffffffff1681526020018762ffffff1681526020018673ffffffffffffffffffffffffffffffffffffffff1681526020018a81526020018581526020018481526020018373ffffffffffffffffffffffffffffffffffffffff16815250905073e592427a0aece92de3edee1f18e0157c0586156473ffffffffffffffffffffffffffffffffffffffff1663414bf389826040518263ffffffff1660e01b81526004016109f69190611b98565b602060405180830381600087803b158015610a1057600080fd5b505af1158015610a24573d6000803e3d6000fd5b505050506040513d601f19601f82011682018060405250810190610a4891906117e1565b995073e592427a0aece92de3edee1f18e0157c0586156473ffffffffffffffffffffffffffffffffffffffff166312210e8a6040518163ffffffff1660e01b8152600401600060405180830381600087803b158015610aa657600080fd5b505af1158015610aba573d6000803e3d6000fd5b5050505060003373ffffffffffffffffffffffffffffffffffffffff1647604051610ae490611aa1565b60006040518083038185875af1925050503d8060008114610b21576040519150601f19603f3d011682016040523d82523d6000602084013e610b26565b606091505b5050905080610b6a576040517f08c379a0000000000000000000000000000000000000000000000000000000008152600401610b6190611b78565b60405180910390fd5b8a600160003373ffffffffffffffffffffffffffffffffffffffff1673ffffffffffffffffffffffffffffffffffffffff16815260200190815260200160002060008e8152602001908152602001600020600082825401925050819055505050505050505050505092915050565b6060600260008373ffffffffffffffffffffffffffffffffffffffff1673ffffffffffffffffffffffffffffffffffffffff168152602001908152602001600020805480602002602001604051908101604052809291908181526020018280548015610c6357602002820191906000526020600020905b815481526020019060010190808311610c4f575b50505050509050919050565b600360003373ffffffffffffffffffffffffffffffffffffffff1673ffffffffffffffffffffffffffffffffffffffff16815260200190815260200160002054610e108202420111610cc057600080fd5b610e1081024201600360003373ffffffffffffffffffffffffffffffffffffffff1673ffffffffffffffffffffffffffffffffffffffff1681526020019081526020016000208190555050565b60008111610d50576040517f08c379a0000000000000000000000000000000000000000000000000000000008152600401610d4790611b38565b60405180910390fd5b600460009054906101000a900473ffffffffffffffffffffffffffffffffffffffff1673ffffffffffffffffffffffffffffffffffffffff166323b872dd3330846040518463ffffffff1660e01b8152600401610daf93929190611ab6565b602060405180830381600087803b158015610dc957600080fd5b505af1158015610ddd573d6000803e3d6000fd5b505050506040513d601f19601f82011682018060405250810190610e01919061178f565b5080600160003373ffffffffffffffffffffffffffffffffffffffff1673ffffffffffffffffffffffffffffffffffffffff1681526020019081526020016000206000806002811115610e5057fe5b81526020019081526020016000206000828254019250508190555050565b600360003373ffffffffffffffffffffffffffffffffffffffff1673ffffffffffffffffffffffffffffffffffffffff168152602001908152602001600020548111610eb957600080fd5b80600360003373ffffffffffffffffffffffffffffffffffffffff1673ffffffffffffffffffffffffffffffffffffffff1681526020019081526020016000208190555050565b6000600360008373ffffffffffffffffffffffffffffffffffffffff1673ffffffffffffffffffffffffffffffffffffffff168152602001908152602001600020549050919050565b600360003373ffffffffffffffffffffffffffffffffffffffff1673ffffffffffffffffffffffffffffffffffffffff16815260200190815260200160002054421015610f9557600080fd5b81600160003373ffffffffffffffffffffffffffffffffffffffff1673ffffffffffffffffffffffffffffffffffffffff1681526020019081526020016000206000838152602001908152602001600020541015610ff257600080fd5b81600160003373ffffffffffffffffffffffffffffffffffffffff1673ffffffffffffffffffffffffffffffffffffffff168152602001908152602001600020600083815260200190815260200160002060008282540392505081905550600080828154811061105e57fe5b9060005260206000200160009054906101000a900473ffffffffffffffffffffffffffffffffffffffff1690508073ffffffffffffffffffffffffffffffffffffffff1663a9059cbb33856040518363ffffffff1660e01b81526004016110c6929190611aed565b602060405180830381600087803b1580156110e057600080fd5b505af11580156110f4573d6000803e3d6000fd5b505050506040513d601f19601f82011682018060405250810190611118919061178f565b50505050565b600381511461112c57600080fd5b60008060009050600091505b82518210156111665782828151811061114d57fe5b6020026020010151810190508180600101925050611138565b6064811461117357600080fd5b82600260003373ffffffffffffffffffffffffffffffffffffffff1673ffffffffffffffffffffffffffffffffffffffff16815260200190815260200160002090805190602001906111c6929190611595565b50505050565b600360003373ffffffffffffffffffffffffffffffffffffffff1673ffffffffffffffffffffffffffffffffffffffff1681526020019081526020016000205462015180820242011161121e57600080fd5b6201518081024201600360003373ffffffffffffffffffffffffffffffffffffffff1673ffffffffffffffffffffffffffffffffffffffff1681526020019081526020016000208190555050565b6000600160008473ffffffffffffffffffffffffffffffffffffffff1673ffffffffffffffffffffffffffffffffffffffff168152602001908152602001600020600083815260200190815260200160002054905092915050565b6000600190505b600260003373ffffffffffffffffffffffffffffffffffffffff1673ffffffffffffffffffffffffffffffffffffffff1681526020019081526020016000208054905081101561139057611382606483600260003373ffffffffffffffffffffffffffffffffffffffff1673ffffffffffffffffffffffffffffffffffffffff168152602001908152602001600020848154811061136857fe5b9060005260206000200154028161137b57fe5b04826107ba565b5080806001019150506112ce565b5050565b6000808473ffffffffffffffffffffffffffffffffffffffff1663095ea7b360e01b8585604051602401808373ffffffffffffffffffffffffffffffffffffffff16815260200182815260200192505050604051602081830303815290604052907bffffffffffffffffffffffffffffffffffffffffffffffffffffffff19166020820180517bffffffffffffffffffffffffffffffffffffffffffffffffffffffff83818316178352505050506040518082805190602001908083835b602083106114755780518252602082019150602081019050602083039250611452565b6001836020036101000a0380198251168184511680821785525050505050509050019150506000604051808303816000865af19150503d80600081146114d7576040519150601f19603f3d011682016040523d82523d6000602084013e6114dc565b606091505b509150915081801561151c575060008151148061151b575080806020019051602081101561150957600080fd5b81019080805190602001909291905050505b5b61158e576040517f08c379a00000000000000000000000000000000000000000000000000000000081526004018080602001828103825260028152602001807f534100000000000000000000000000000000000000000000000000000000000081525060200191505060405180910390fd5b5050505050565b8280548282559060005260206000209081019282156115d1579160200282015b828111156115d05782518255916020019190600101906115b5565b5b5090506115de91906115e2565b5090565b5b808211156115fb5760008160009055506001016115e3565b5090565b600061161261160d84611c00565b611bcf565b9050808382526020820190508285602086028201111561163157600080fd5b60005b85811015611661578161164788826116bf565b845260208401935060208301925050600181019050611634565b5050509392505050565b60008135905061167a81611d10565b92915050565b600082601f83011261169157600080fd5b81356116a18482602086016115ff565b91505092915050565b6000815190506116b981611d27565b92915050565b6000813590506116ce81611d3e565b92915050565b6000815190506116e381611d3e565b92915050565b6000602082840312156116fb57600080fd5b60006117098482850161166b565b91505092915050565b6000806040838503121561172557600080fd5b60006117338582860161166b565b9250506020611744858286016116bf565b9150509250929050565b60006020828403121561176057600080fd5b600082013567ffffffffffffffff81111561177a57600080fd5b61178684828501611680565b91505092915050565b6000602082840312156117a157600080fd5b60006117af848285016116aa565b91505092915050565b6000602082840312156117ca57600080fd5b60006117d8848285016116bf565b91505092915050565b6000602082840312156117f357600080fd5b6000611801848285016116d4565b91505092915050565b6000806040838503121561181d57600080fd5b600061182b858286016116bf565b925050602061183c858286016116bf565b9150509250929050565b60006118528383611a83565b60208301905092915050565b61186781611cd8565b82525050565b61187681611c81565b82525050565b61188581611c81565b82525050565b600061189682611c3c565b6118a08185611c54565b93506118ab83611c2c565b8060005b838110156118dc5781516118c38882611846565b97506118ce83611c47565b9250506001810190506118af565b5085935050505092915050565b60006118f6601f83611c70565b91507f616d6f756e742073686f756c642062652067726561746572207468616e2030006000830152602082019050919050565b6000611936600083611c65565b9150600082019050919050565b6000611950601a83611c70565b91507f4d7573742070617373206e6f6e20302045544820616d6f756e740000000000006000830152602082019050919050565b6000611990600d83611c70565b91507f726566756e64206661696c6564000000000000000000000000000000000000006000830152602082019050919050565b610100820160008201516119da600085018261186d565b5060208201516119ed602085018261186d565b506040820151611a006040850182611a74565b506060820151611a13606085018261186d565b506080820151611a266080850182611a83565b5060a0820151611a3960a0850182611a83565b5060c0820151611a4c60c0850182611a83565b5060e0820151611a5f60e0850182611a65565b50505050565b611a6e81611c9f565b82525050565b611a7d81611cbf565b82525050565b611a8c81611cce565b82525050565b611a9b81611cce565b82525050565b6000611aac82611929565b9150819050919050565b6000606082019050611acb600083018661185e565b611ad8602083018561187c565b611ae56040830184611a92565b949350505050565b6000604082019050611b02600083018561185e565b611b0f6020830184611a92565b9392505050565b60006020820190508181036000830152611b30818461188b565b905092915050565b60006020820190508181036000830152611b51816118e9565b9050919050565b60006020820190508181036000830152611b7181611943565b9050919050565b60006020820190508181036000830152611b9181611983565b9050919050565b600061010082019050611bae60008301846119c3565b92915050565b6000602082019050611bc96000830184611a92565b92915050565b6000604051905081810181811067ffffffffffffffff82111715611bf657611bf5611d0e565b5b8060405250919050565b600067ffffffffffffffff821115611c1b57611c1a611d0e565b5b602082029050602081019050919050565b6000819050602082019050919050565b600081519050919050565b6000602082019050919050565b600082825260208201905092915050565b600081905092915050565b600082825260208201905092915050565b6000611c8c82611c9f565b9050919050565b60008115159050919050565b600073ffffffffffffffffffffffffffffffffffffffff82169050919050565b600062ffffff82169050919050565b6000819050919050565b6000611ce382611cea565b9050919050565b6000611cf582611cfc565b9050919050565b6000611d0782611c9f565b9050919050565bfe5b611d1981611c81565b8114611d2457600080fd5b50565b611d3081611c93565b8114611d3b57600080fd5b50565b611d4781611cce565b8114611d5257600080fd5b5056fea264697066735822122074ee6ec49e8fd1dec2cece2ed15daee96fa9360bdf0f9a3e4e47abf9391e433c64736f6c63430007060033",
  "immutableReferences": {},
  "source": "// SPDX-License-Identifier: MIT\npragma solidity =0.7.6;\npragma abicoder v2;\n\nimport '@uniswap/v3-periphery/contracts/interfaces/ISwapRouter.sol';\nimport '@uniswap/v3-periphery/contracts/libraries/TransferHelper.sol';\nimport \"@uniswap/v3-periphery/contracts/interfaces/IQuoter.sol\";\n\n\n/// @title Interface inheriting from uniswap swap router, and adding refundETH function.\ninterface IUniswapRouter is ISwapRouter {\n    function refundETH() external payable;\n}\n\n/// @title Interface representing ERC20 tokens\ninterface ErcToken {\n      function transfer(address dst, uint wad) external returns (bool);\n      function transferFrom(address src, address dst, uint wad) external returns (bool);\n      function balanceOf(address guy) external view returns (uint);\n}\n\n/// @title DCAWallet main code\n/// @author Ng Joe Hoong\ncontract DCAWallet {\n\n  // Kovan addresses\n  IUniswapRouter internal constant uniswapRouter = IUniswapRouter(0xE592427A0AEce92De3Edee1F18E0157C05861564);\n  IQuoter internal constant quoter = IQuoter(0xb27308f9F90D607463bb33eA1BeBb41C27CE5AB6);\n  address[] internal token_addresses = [0x4F96Fe3b7A6Cf9725f59d353F723c1bDb64CA6Aa,  //DAI\n                                0xd0A1E359811322d97991E03f863a0C30C2cF029C,  //WETH\n                                0xa36085F69e2889c224210F603D836748e7dC0088];  //LINK\n\n  \n\n  mapping(address => mapping(uint => uint)) internal tokenBalances; //owner address => tokenType enum => tokenbalance\n  mapping(address => uint[]) internal portfolioAllocation;  // investment strategy for each owner\n  mapping(address => uint) internal userTimelock;   //timelock where user can't withdraw tokens \n\n  uint24 internal constant poolFee = 3000;\n  \n  enum TokenType{ DAI, WETH, LINK}\n\n  ErcToken internal daiToken;\n  ErcToken internal wethToken;\n  ErcToken internal linkToken;\n\n  constructor() {\n    daiToken = ErcToken(token_addresses[0]);  \n    wethToken = ErcToken(token_addresses[1]);  \n    linkToken = ErcToken(token_addresses[2]);  \n  }\n\n  /// User sets up/modifies portfolio allocation\n  function createPortfolioAllocation(uint[] memory _portfolio_allocation) public{\n    require(_portfolio_allocation.length == 3); // number of tokens under TokenType enum\n\n    uint i;\n    uint sum = 0;\n\n    for(i = 0; i<_portfolio_allocation.length; i++ ){\n      sum += _portfolio_allocation[i];\n    }\n\n    require(sum == 100);\n\n    portfolioAllocation[msg.sender] = _portfolio_allocation;\n\n  }\n\n  /// Handle deposits of dai and no execution\n  function daiDeposited(uint _amount) public {\n    require(_amount > 0, \"amount should be greater than 0\");\n\n    // Need owner to approve token transfer via javascript UI first\n    daiToken.transferFrom(msg.sender, address(this), _amount);\n\n    tokenBalances[msg.sender][uint(TokenType.DAI)] += _amount;\n\n  }\n\n  /// Handle deposits of dai and execute trades\n  function daiDepositedAndExecute(uint _amount) public {\n    require(_amount > 0, \"amount should be greater than 0\");\n\n    // Need owner to approve token transfer via javascript UI first\n    daiToken.transferFrom(msg.sender, address(this), _amount);\n\n    tokenBalances[msg.sender][uint(TokenType.DAI)] += _amount;\n\n    executePortfolioBuys(_amount);\n  }\n\n  /// Execute portfolio buys after dai is deposited, according to user's portfolio allocation\n  function executePortfolioBuys(uint _amount) public {\n    uint i;\n    \n    for(i = 1; i<portfolioAllocation[msg.sender].length; i++ ){\n      swapExactInputSingle( portfolioAllocation[msg.sender][i] * _amount / 100, i);\n    }\n\n\n\n  }\n\n  /// Use uniswap pools to swap and exact amount of input tokens for output tokens\n  function swapExactInputSingle(uint256 _amountIn, uint token_index) public returns (uint256 amountOut) {\n        // msg.sender must approve this contract\n\n        //Deduct dai balance from sender\n        tokenBalances[msg.sender][uint(TokenType.DAI)] -= _amountIn;\n\n\n        // Approve the router to spend DAI.\n        TransferHelper.safeApprove(token_addresses[0], address(uniswapRouter), _amountIn);\n\n        uint256 deadline = block.timestamp + 15; // using 'now' for convenience, for mainnet pass deadline from frontend!\n        address tokenIn = token_addresses[0];\n        address tokenOut = token_addresses[token_index];\n        uint24 fee = 3000;\n        address recipient = address(this);\n        uint256 amountIn = _amountIn;\n        uint256 amountOutMinimum = 0;\n        uint160 sqrtPriceLimitX96 = 0;\n        \n        ISwapRouter.ExactInputSingleParams memory params = ISwapRouter.ExactInputSingleParams(\n            tokenIn,\n            tokenOut,\n            fee,\n            recipient,\n            deadline,\n            amountIn,\n            amountOutMinimum,\n            sqrtPriceLimitX96\n        );\n        \n        amountOut = uniswapRouter.exactInputSingle(params);\n        uniswapRouter.refundETH();\n        \n        // refund leftover ETH to user\n        (bool success,) = msg.sender.call{ value: address(this).balance }(\"\");\n        require(success, \"refund failed\");\n\n        //Add swapped token to senders balance\n        tokenBalances[msg.sender][token_index] += amountOut;\n    }\n\n  /// User can set timelock to prevent any withdrawals/forced to hodl\n  function setTimelockByDate(uint _unlockDate) public {\n    require(_unlockDate > userTimelock[msg.sender] );\n    userTimelock[msg.sender] = _unlockDate;\n  }\n\n  /// Users set timelock based on number of hours from current time\n  function setTimelockByHours(uint _hoursToLock) public {\n    require(block.timestamp + _hoursToLock * 1 hours > userTimelock[msg.sender] );\n    userTimelock[msg.sender] = block.timestamp + _hoursToLock * 1 hours;\n  }\n\n  /// Users set timelock based on number of days from current time\n  function setTimelockByDays(uint _daysToLock) public {\n    require(block.timestamp + _daysToLock * 1 days > userTimelock[msg.sender] );\n    userTimelock[msg.sender] = block.timestamp + _daysToLock * 1 days;\n  }\n\n\n  // /Withdraw/spend tokens after timelock is over\n  function withdrawTokens(uint amount, uint token_index) public {\n    require(block.timestamp >= userTimelock[msg.sender]);\n    require(tokenBalances[msg.sender][token_index] >= amount);\n\n    tokenBalances[msg.sender][token_index] -= amount;\n    ErcToken withdrawal_token = ErcToken(token_addresses[token_index]);\n    withdrawal_token.transfer(msg.sender, amount);\n  }\n\n\n  /// Convenience function to swap eth to dai for test cases\n  function convertExactEthToDai() external payable {\n    require(msg.value > 0, \"Must pass non 0 ETH amount\");\n\n    uint256 deadline = block.timestamp + 15; // using 'now' for convenience, for mainnet pass deadline from frontend!\n    address tokenIn = token_addresses[1];\n    address tokenOut = token_addresses[0];\n    uint24 fee = 3000;\n    address recipient = msg.sender;\n    uint256 amountIn = msg.value;\n    uint256 amountOutMinimum = 0;\n    uint160 sqrtPriceLimitX96 = 0;\n    \n    ISwapRouter.ExactInputSingleParams memory params = ISwapRouter.ExactInputSingleParams(\n        tokenIn,\n        tokenOut,\n        fee,\n        recipient,\n        deadline,\n        amountIn,\n        amountOutMinimum,\n        sqrtPriceLimitX96\n    );\n    \n    uint amountOut = uniswapRouter.exactInputSingle{ value: msg.value }(params);\n    uniswapRouter.refundETH();\n    \n    // refund leftover ETH to user\n    (bool success,) = msg.sender.call{ value: address(this).balance }(\"\");\n    require(success, \"refund failed\");\n  }\n\n  /// getters for user's token balances\n  function getTokenBalances(address user, uint token_index) public view returns (uint256) {\n    return tokenBalances[user][token_index];\n  }\n\n  /// getters for portfolio allocation\n  function getPortfolioAllocation(address user) public view returns (uint256[] memory) {\n    return portfolioAllocation[user];\n  }\n\n  /// getters for user's timelock\n  function getUserTimelock(address user) public view returns (uint256) {\n    return userTimelock[user];\n  }\n\n\n}\n",
  "sourcePath": "/home/ngjoehoong88/blockchain-developer-bootcamp-final-project/contracts/DCAWallet.sol",
  "compiler": {
    "name": "solc",
    "version": "0.7.6+commit.7338295f.Emscripten.clang"
  },
  "schemaVersion": "3.4.3",
  "updatedAt": "2021-11-04T07:39:48.613Z",
  "networkType": "ethereum",
  "devdoc": {
    "author": "Ng Joe Hoong",
    "kind": "dev",
    "methods": {},
    "title": "DCAWallet main code",
    "version": 1
  },
  "userdoc": {
    "kind": "user",
    "methods": {
      "convertExactEthToDai()": {
        "notice": "Convenience function to swap eth to dai for test cases"
      },
      "createPortfolioAllocation(uint256[])": {
        "notice": "User sets up/modifies portfolio allocation"
      },
      "daiDeposited(uint256)": {
        "notice": "Handle deposits of dai and no execution"
      },
      "daiDepositedAndExecute(uint256)": {
        "notice": "Handle deposits of dai and execute trades"
      },
      "executePortfolioBuys(uint256)": {
        "notice": "Execute portfolio buys after dai is deposited, according to user's portfolio allocation"
      },
      "getPortfolioAllocation(address)": {
        "notice": "getters for portfolio allocation"
      },
      "getTokenBalances(address,uint256)": {
        "notice": "getters for user's token balances"
      },
      "getUserTimelock(address)": {
        "notice": "getters for user's timelock"
      },
      "setTimelockByDate(uint256)": {
        "notice": "User can set timelock to prevent any withdrawals/forced to hodl"
      },
      "setTimelockByDays(uint256)": {
        "notice": "Users set timelock based on number of days from current time"
      },
      "setTimelockByHours(uint256)": {
        "notice": "Users set timelock based on number of hours from current time"
      },
      "swapExactInputSingle(uint256,uint256)": {
        "notice": "Use uniswap pools to swap and exact amount of input tokens for output tokens"
      }
    },
    "version": 1
  }
}